{
  "_format": "hh-sol-artifact-1",
  "contractName": "Unyte",
  "sourceName": "contracts/Lock.sol",
  "abi": [
    {
      "anonymous": false,
      "inputs": [
        {
          "indexed": false,
          "internalType": "uint256",
          "name": "taskId",
          "type": "uint256"
        },
        {
          "indexed": false,
          "internalType": "string",
          "name": "content",
          "type": "string"
        }
      ],
      "name": "TaskAdded",
      "type": "event"
    },
    {
      "anonymous": false,
      "inputs": [
        {
          "indexed": false,
          "internalType": "uint256",
          "name": "taskId",
          "type": "uint256"
        }
      ],
      "name": "TaskCompleted",
      "type": "event"
    },
    {
      "anonymous": false,
      "inputs": [
        {
          "indexed": false,
          "internalType": "uint256",
          "name": "taskId",
          "type": "uint256"
        },
        {
          "indexed": false,
          "internalType": "uint256",
          "name": "from",
          "type": "uint256"
        },
        {
          "indexed": false,
          "internalType": "uint256",
          "name": "to",
          "type": "uint256"
        },
        {
          "indexed": false,
          "internalType": "string",
          "name": "content",
          "type": "string"
        }
      ],
      "name": "ThankAdded",
      "type": "event"
    },
    {
      "inputs": [
        {
          "internalType": "uint256",
          "name": "teamId",
          "type": "uint256"
        },
        {
          "internalType": "string",
          "name": "teamName",
          "type": "string"
        },
        {
          "internalType": "string",
          "name": "teamIconURL",
          "type": "string"
        },
        {
          "internalType": "uint256",
          "name": "userId",
          "type": "uint256"
        },
        {
          "internalType": "string",
          "name": "userName",
          "type": "string"
        },
        {
          "internalType": "string",
          "name": "userIconURL",
          "type": "string"
        },
        {
          "internalType": "string",
          "name": "content",
          "type": "string"
        }
      ],
      "name": "addTask",
      "outputs": [],
      "stateMutability": "nonpayable",
      "type": "function"
    },
    {
      "inputs": [
        {
          "internalType": "uint256",
          "name": "taskId",
          "type": "uint256"
        },
        {
          "internalType": "uint256",
          "name": "from",
          "type": "uint256"
        },
        {
          "internalType": "string",
          "name": "fromName",
          "type": "string"
        },
        {
          "internalType": "string",
          "name": "fromIconURL",
          "type": "string"
        },
        {
          "internalType": "uint256",
          "name": "to",
          "type": "uint256"
        },
        {
          "internalType": "string",
          "name": "toName",
          "type": "string"
        },
        {
          "internalType": "string",
          "name": "toIconURL",
          "type": "string"
        },
        {
          "internalType": "string",
          "name": "content",
          "type": "string"
        }
      ],
      "name": "addThank",
      "outputs": [],
      "stateMutability": "nonpayable",
      "type": "function"
    },
    {
      "inputs": [
        {
          "internalType": "uint256",
          "name": "taskId",
          "type": "uint256"
        }
      ],
      "name": "completeTask",
      "outputs": [],
      "stateMutability": "nonpayable",
      "type": "function"
    },
    {
      "inputs": [],
      "name": "getAllTasks",
      "outputs": [
        {
          "components": [
            {
              "internalType": "uint256",
              "name": "taskId",
              "type": "uint256"
            },
            {
              "internalType": "uint256",
              "name": "teamId",
              "type": "uint256"
            },
            {
              "internalType": "string",
              "name": "teamName",
              "type": "string"
            },
            {
              "internalType": "string",
              "name": "teamIconURL",
              "type": "string"
            },
            {
              "internalType": "uint256",
              "name": "userId",
              "type": "uint256"
            },
            {
              "internalType": "string",
              "name": "userName",
              "type": "string"
            },
            {
              "internalType": "string",
              "name": "userIconURL",
              "type": "string"
            },
            {
              "internalType": "string",
              "name": "content",
              "type": "string"
            },
            {
              "internalType": "bool",
              "name": "completed",
              "type": "bool"
            }
          ],
          "internalType": "struct Unyte.Task[]",
          "name": "",
          "type": "tuple[]"
        }
      ],
      "stateMutability": "view",
      "type": "function"
    },
    {
      "inputs": [],
      "name": "getAllThanks",
      "outputs": [
        {
          "components": [
            {
              "internalType": "uint256",
              "name": "taskId",
              "type": "uint256"
            },
            {
              "internalType": "uint256",
              "name": "from",
              "type": "uint256"
            },
            {
              "internalType": "string",
              "name": "fromName",
              "type": "string"
            },
            {
              "internalType": "string",
              "name": "fromIconURL",
              "type": "string"
            },
            {
              "internalType": "uint256",
              "name": "to",
              "type": "uint256"
            },
            {
              "internalType": "string",
              "name": "toName",
              "type": "string"
            },
            {
              "internalType": "string",
              "name": "toIconURL",
              "type": "string"
            },
            {
              "internalType": "string",
              "name": "content",
              "type": "string"
            }
          ],
          "internalType": "struct Unyte.Thank[]",
          "name": "",
          "type": "tuple[]"
        }
      ],
      "stateMutability": "view",
      "type": "function"
    },
    {
      "inputs": [],
      "name": "taskCount",
      "outputs": [
        {
          "internalType": "uint256",
          "name": "",
          "type": "uint256"
        }
      ],
      "stateMutability": "view",
      "type": "function"
    },
    {
      "inputs": [
        {
          "internalType": "uint256",
          "name": "",
          "type": "uint256"
        }
      ],
      "name": "tasks",
      "outputs": [
        {
          "internalType": "uint256",
          "name": "taskId",
          "type": "uint256"
        },
        {
          "internalType": "uint256",
          "name": "teamId",
          "type": "uint256"
        },
        {
          "internalType": "string",
          "name": "teamName",
          "type": "string"
        },
        {
          "internalType": "string",
          "name": "teamIconURL",
          "type": "string"
        },
        {
          "internalType": "uint256",
          "name": "userId",
          "type": "uint256"
        },
        {
          "internalType": "string",
          "name": "userName",
          "type": "string"
        },
        {
          "internalType": "string",
          "name": "userIconURL",
          "type": "string"
        },
        {
          "internalType": "string",
          "name": "content",
          "type": "string"
        },
        {
          "internalType": "bool",
          "name": "completed",
          "type": "bool"
        }
      ],
      "stateMutability": "view",
      "type": "function"
    },
    {
      "inputs": [
        {
          "internalType": "uint256",
          "name": "",
          "type": "uint256"
        }
      ],
      "name": "thanks",
      "outputs": [
        {
          "internalType": "uint256",
          "name": "taskId",
          "type": "uint256"
        },
        {
          "internalType": "uint256",
          "name": "from",
          "type": "uint256"
        },
        {
          "internalType": "string",
          "name": "fromName",
          "type": "string"
        },
        {
          "internalType": "string",
          "name": "fromIconURL",
          "type": "string"
        },
        {
          "internalType": "uint256",
          "name": "to",
          "type": "uint256"
        },
        {
          "internalType": "string",
          "name": "toName",
          "type": "string"
        },
        {
          "internalType": "string",
          "name": "toIconURL",
          "type": "string"
        },
        {
          "internalType": "string",
          "name": "content",
          "type": "string"
        }
      ],
      "stateMutability": "view",
      "type": "function"
    },
    {
      "inputs": [],
      "name": "thanksCount",
      "outputs": [
        {
          "internalType": "uint256",
          "name": "",
          "type": "uint256"
        }
      ],
      "stateMutability": "view",
      "type": "function"
    }
  ],
  "bytecode": "0x608060405234801561001057600080fd5b5061201e806100206000396000f3fe608060405234801561001057600080fd5b50600436106100935760003560e01c8063b4da1e7f11610066578063b4da1e7f14610141578063b6cb58a51461015f578063cb1acbd61461017d578063e1e2955814610199578063edffa961146101b557610093565b806317c4053914610098578063779900b4146100b45780638d977672146100d25780639aa7d3b31461010a575b600080fd5b6100b260048036038101906100ad9190611598565b6101d3565b005b6100bc610333565b6040516100c9919061192f565b60405180910390f35b6100ec60048036038101906100e79190611951565b610715565b604051610101999897969594939291906119e6565b60405180910390f35b610124600480360381019061011f9190611951565b610a18565b604051610138989796959493929190611a96565b60405180910390f35b610149610d08565b6040516101569190611cc5565b60405180910390f35b6101676110d0565b6040516101749190611ce7565b60405180910390f35b61019760048036038101906101929190611d02565b6110d6565b005b6101b360048036038101906101ae9190611951565b61125e565b005b6101bd6112cc565b6040516101ca9190611ce7565b60405180910390f35b600360008154809291906101e690611e5f565b9190505550604051806101000160405280898152602001888152602001878152602001868152602001858152602001848152602001838152602001828152506002600060035481526020019081526020016000206000820151816000015560208201518160010155604082015181600201908051906020019061026a9291906112d2565b5060608201518160030190805190602001906102879291906112d2565b506080820151816004015560a08201518160050190805190602001906102ae9291906112d2565b5060c08201518160060190805190602001906102cb9291906112d2565b5060e08201518160070190805190602001906102e89291906112d2565b509050507fad8425643277b0b771bcc7468b8d75aebd48cd14b797be059a0472d3671e4a83888886846040516103219493929190611ea8565b60405180910390a15050505050505050565b6060600060015467ffffffffffffffff8111156103535761035261146d565b5b60405190808252806020026020018201604052801561038c57816020015b610379611358565b8152602001906001900390816103715790505b5090506000600190505b600154811161070d576000808281526020019081526020016000206040518061012001604052908160008201548152602001600182015481526020016002820180546103e190611f23565b80601f016020809104026020016040519081016040528092919081815260200182805461040d90611f23565b801561045a5780601f1061042f5761010080835404028352916020019161045a565b820191906000526020600020905b81548152906001019060200180831161043d57829003601f168201915b5050505050815260200160038201805461047390611f23565b80601f016020809104026020016040519081016040528092919081815260200182805461049f90611f23565b80156104ec5780601f106104c1576101008083540402835291602001916104ec565b820191906000526020600020905b8154815290600101906020018083116104cf57829003601f168201915b505050505081526020016004820154815260200160058201805461050f90611f23565b80601f016020809104026020016040519081016040528092919081815260200182805461053b90611f23565b80156105885780601f1061055d57610100808354040283529160200191610588565b820191906000526020600020905b81548152906001019060200180831161056b57829003601f168201915b505050505081526020016006820180546105a190611f23565b80601f01602080910402602001604051908101604052809291908181526020018280546105cd90611f23565b801561061a5780601f106105ef5761010080835404028352916020019161061a565b820191906000526020600020905b8154815290600101906020018083116105fd57829003601f168201915b5050505050815260200160078201805461063390611f23565b80601f016020809104026020016040519081016040528092919081815260200182805461065f90611f23565b80156106ac5780601f10610681576101008083540402835291602001916106ac565b820191906000526020600020905b81548152906001019060200180831161068f57829003601f168201915b505050505081526020016008820160009054906101000a900460ff161515151581525050826001836106de9190611f55565b815181106106ef576106ee611f89565b5b6020026020010181905250808061070590611e5f565b915050610396565b508091505090565b600060205280600052604060002060009150905080600001549080600101549080600201805461074490611f23565b80601f016020809104026020016040519081016040528092919081815260200182805461077090611f23565b80156107bd5780601f10610792576101008083540402835291602001916107bd565b820191906000526020600020905b8154815290600101906020018083116107a057829003601f168201915b5050505050908060030180546107d290611f23565b80601f01602080910402602001604051908101604052809291908181526020018280546107fe90611f23565b801561084b5780601f106108205761010080835404028352916020019161084b565b820191906000526020600020905b81548152906001019060200180831161082e57829003601f168201915b50505050509080600401549080600501805461086690611f23565b80601f016020809104026020016040519081016040528092919081815260200182805461089290611f23565b80156108df5780601f106108b4576101008083540402835291602001916108df565b820191906000526020600020905b8154815290600101906020018083116108c257829003601f168201915b5050505050908060060180546108f490611f23565b80601f016020809104026020016040519081016040528092919081815260200182805461092090611f23565b801561096d5780601f106109425761010080835404028352916020019161096d565b820191906000526020600020905b81548152906001019060200180831161095057829003601f168201915b50505050509080600701805461098290611f23565b80601f01602080910402602001604051908101604052809291908181526020018280546109ae90611f23565b80156109fb5780601f106109d0576101008083540402835291602001916109fb565b820191906000526020600020905b8154815290600101906020018083116109de57829003601f168201915b5050505050908060080160009054906101000a900460ff16905089565b6002602052806000526040600020600091509050806000015490806001015490806002018054610a4790611f23565b80601f0160208091040260200160405190810160405280929190818152602001828054610a7390611f23565b8015610ac05780601f10610a9557610100808354040283529160200191610ac0565b820191906000526020600020905b815481529060010190602001808311610aa357829003601f168201915b505050505090806003018054610ad590611f23565b80601f0160208091040260200160405190810160405280929190818152602001828054610b0190611f23565b8015610b4e5780601f10610b2357610100808354040283529160200191610b4e565b820191906000526020600020905b815481529060010190602001808311610b3157829003601f168201915b505050505090806004015490806005018054610b6990611f23565b80601f0160208091040260200160405190810160405280929190818152602001828054610b9590611f23565b8015610be25780601f10610bb757610100808354040283529160200191610be2565b820191906000526020600020905b815481529060010190602001808311610bc557829003601f168201915b505050505090806006018054610bf790611f23565b80601f0160208091040260200160405190810160405280929190818152602001828054610c2390611f23565b8015610c705780601f10610c4557610100808354040283529160200191610c70565b820191906000526020600020905b815481529060010190602001808311610c5357829003601f168201915b505050505090806007018054610c8590611f23565b80601f0160208091040260200160405190810160405280929190818152602001828054610cb190611f23565b8015610cfe5780601f10610cd357610100808354040283529160200191610cfe565b820191906000526020600020905b815481529060010190602001808311610ce157829003601f168201915b5050505050905088565b6060600060035467ffffffffffffffff811115610d2857610d2761146d565b5b604051908082528060200260200182016040528015610d6157816020015b610d4e6113a6565b815260200190600190039081610d465790505b5090506000600190505b60035481116110c85760026000828152602001908152602001600020604051806101000160405290816000820154815260200160018201548152602001600282018054610db790611f23565b80601f0160208091040260200160405190810160405280929190818152602001828054610de390611f23565b8015610e305780601f10610e0557610100808354040283529160200191610e30565b820191906000526020600020905b815481529060010190602001808311610e1357829003601f168201915b50505050508152602001600382018054610e4990611f23565b80601f0160208091040260200160405190810160405280929190818152602001828054610e7590611f23565b8015610ec25780601f10610e9757610100808354040283529160200191610ec2565b820191906000526020600020905b815481529060010190602001808311610ea557829003601f168201915b5050505050815260200160048201548152602001600582018054610ee590611f23565b80601f0160208091040260200160405190810160405280929190818152602001828054610f1190611f23565b8015610f5e5780601f10610f3357610100808354040283529160200191610f5e565b820191906000526020600020905b815481529060010190602001808311610f4157829003601f168201915b50505050508152602001600682018054610f7790611f23565b80601f0160208091040260200160405190810160405280929190818152602001828054610fa390611f23565b8015610ff05780601f10610fc557610100808354040283529160200191610ff0565b820191906000526020600020905b815481529060010190602001808311610fd357829003601f168201915b5050505050815260200160078201805461100990611f23565b80601f016020809104026020016040519081016040528092919081815260200182805461103590611f23565b80156110825780601f1061105757610100808354040283529160200191611082565b820191906000526020600020905b81548152906001019060200180831161106557829003601f168201915b505050505081525050826001836110999190611f55565b815181106110aa576110a9611f89565b5b602002602001018190525080806110c090611e5f565b915050610d6b565b508091505090565b60015481565b600160008154809291906110e990611e5f565b91905055506040518061012001604052806001548152602001888152602001878152602001868152602001858152602001848152602001838152602001828152602001600015158152506000806001548152602001908152602001600020600082015181600001556020820151816001015560408201518160020190805190602001906111779291906112d2565b5060608201518160030190805190602001906111949291906112d2565b506080820151816004015560a08201518160050190805190602001906111bb9291906112d2565b5060c08201518160060190805190602001906111d89291906112d2565b5060e08201518160070190805190602001906111f59291906112d2565b506101008201518160080160006101000a81548160ff0219169083151502179055509050507f2ee7ce8bac091b03a0c391c07ee88a246bdd72bdc6b1ef1ce4d99220595d32c56001548260405161124d929190611fb8565b60405180910390a150505050505050565b6000806000838152602001908152602001600020905060018160080160006101000a81548160ff0219169083151502179055507fc1fa7142cfb933d0855114a3bffde296944c30b727f297c14d0db4d553d3a5c7826040516112c09190611ce7565b60405180910390a15050565b60035481565b8280546112de90611f23565b90600052602060002090601f0160209004810192826113005760008555611347565b82601f1061131957805160ff1916838001178555611347565b82800160010185558215611347579182015b8281111561134657825182559160200191906001019061132b565b5b50905061135491906113eb565b5090565b60405180610120016040528060008152602001600081526020016060815260200160608152602001600081526020016060815260200160608152602001606081526020016000151581525090565b60405180610100016040528060008152602001600081526020016060815260200160608152602001600081526020016060815260200160608152602001606081525090565b5b808211156114045760008160009055506001016113ec565b5090565b6000604051905090565b600080fd5b600080fd5b6000819050919050565b61142f8161141c565b811461143a57600080fd5b50565b60008135905061144c81611426565b92915050565b600080fd5b600080fd5b6000601f19601f8301169050919050565b7f4e487b7100000000000000000000000000000000000000000000000000000000600052604160045260246000fd5b6114a58261145c565b810181811067ffffffffffffffff821117156114c4576114c361146d565b5b80604052505050565b60006114d7611408565b90506114e3828261149c565b919050565b600067ffffffffffffffff8211156115035761150261146d565b5b61150c8261145c565b9050602081019050919050565b82818337600083830152505050565b600061153b611536846114e8565b6114cd565b90508281526020810184848401111561155757611556611457565b5b611562848285611519565b509392505050565b600082601f83011261157f5761157e611452565b5b813561158f848260208601611528565b91505092915050565b600080600080600080600080610100898b0312156115b9576115b8611412565b5b60006115c78b828c0161143d565b98505060206115d88b828c0161143d565b975050604089013567ffffffffffffffff8111156115f9576115f8611417565b5b6116058b828c0161156a565b965050606089013567ffffffffffffffff81111561162657611625611417565b5b6116328b828c0161156a565b95505060806116438b828c0161143d565b94505060a089013567ffffffffffffffff81111561166457611663611417565b5b6116708b828c0161156a565b93505060c089013567ffffffffffffffff81111561169157611690611417565b5b61169d8b828c0161156a565b92505060e089013567ffffffffffffffff8111156116be576116bd611417565b5b6116ca8b828c0161156a565b9150509295985092959890939650565b600081519050919050565b600082825260208201905092915050565b6000819050602082019050919050565b61170f8161141c565b82525050565b600081519050919050565b600082825260208201905092915050565b60005b8381101561174f578082015181840152602081019050611734565b8381111561175e576000848401525b50505050565b600061176f82611715565b6117798185611720565b9350611789818560208601611731565b6117928161145c565b840191505092915050565b60008115159050919050565b6117b28161179d565b82525050565b6000610120830160008301516117d16000860182611706565b5060208301516117e46020860182611706565b50604083015184820360408601526117fc8282611764565b915050606083015184820360608601526118168282611764565b915050608083015161182b6080860182611706565b5060a083015184820360a08601526118438282611764565b91505060c083015184820360c086015261185d8282611764565b91505060e083015184820360e08601526118778282611764565b91505061010083015161188e6101008601826117a9565b508091505092915050565b60006118a583836117b8565b905092915050565b6000602082019050919050565b60006118c5826116da565b6118cf81856116e5565b9350836020820285016118e1856116f6565b8060005b8581101561191d57848403895281516118fe8582611899565b9450611909836118ad565b925060208a019950506001810190506118e5565b50829750879550505050505092915050565b6000602082019050818103600083015261194981846118ba565b905092915050565b60006020828403121561196757611966611412565b5b60006119758482850161143d565b91505092915050565b6119878161141c565b82525050565b600082825260208201905092915050565b60006119a982611715565b6119b3818561198d565b93506119c3818560208601611731565b6119cc8161145c565b840191505092915050565b6119e08161179d565b82525050565b6000610120820190506119fc600083018c61197e565b611a09602083018b61197e565b8181036040830152611a1b818a61199e565b90508181036060830152611a2f818961199e565b9050611a3e608083018861197e565b81810360a0830152611a50818761199e565b905081810360c0830152611a64818661199e565b905081810360e0830152611a78818561199e565b9050611a886101008301846119d7565b9a9950505050505050505050565b600061010082019050611aac600083018b61197e565b611ab9602083018a61197e565b8181036040830152611acb818961199e565b90508181036060830152611adf818861199e565b9050611aee608083018761197e565b81810360a0830152611b00818661199e565b905081810360c0830152611b14818561199e565b905081810360e0830152611b28818461199e565b90509998505050505050505050565b600081519050919050565b600082825260208201905092915050565b6000819050602082019050919050565b600061010083016000830151611b7c6000860182611706565b506020830151611b8f6020860182611706565b5060408301518482036040860152611ba78282611764565b91505060608301518482036060860152611bc18282611764565b9150506080830151611bd66080860182611706565b5060a083015184820360a0860152611bee8282611764565b91505060c083015184820360c0860152611c088282611764565b91505060e083015184820360e0860152611c228282611764565b9150508091505092915050565b6000611c3b8383611b63565b905092915050565b6000602082019050919050565b6000611c5b82611b37565b611c658185611b42565b935083602082028501611c7785611b53565b8060005b85811015611cb35784840389528151611c948582611c2f565b9450611c9f83611c43565b925060208a01995050600181019050611c7b565b50829750879550505050505092915050565b60006020820190508181036000830152611cdf8184611c50565b905092915050565b6000602082019050611cfc600083018461197e565b92915050565b600080600080600080600060e0888a031215611d2157611d20611412565b5b6000611d2f8a828b0161143d565b975050602088013567ffffffffffffffff811115611d5057611d4f611417565b5b611d5c8a828b0161156a565b965050604088013567ffffffffffffffff811115611d7d57611d7c611417565b5b611d898a828b0161156a565b9550506060611d9a8a828b0161143d565b945050608088013567ffffffffffffffff811115611dbb57611dba611417565b5b611dc78a828b0161156a565b93505060a088013567ffffffffffffffff811115611de857611de7611417565b5b611df48a828b0161156a565b92505060c088013567ffffffffffffffff811115611e1557611e14611417565b5b611e218a828b0161156a565b91505092959891949750929550565b7f4e487b7100000000000000000000000000000000000000000000000000000000600052601160045260246000fd5b6000611e6a8261141c565b91507fffffffffffffffffffffffffffffffffffffffffffffffffffffffffffffffff821415611e9d57611e9c611e30565b5b600182019050919050565b6000608082019050611ebd600083018761197e565b611eca602083018661197e565b611ed7604083018561197e565b8181036060830152611ee9818461199e565b905095945050505050565b7f4e487b7100000000000000000000000000000000000000000000000000000000600052602260045260246000fd5b60006002820490506001821680611f3b57607f821691505b60208210811415611f4f57611f4e611ef4565b5b50919050565b6000611f608261141c565b9150611f6b8361141c565b925082821015611f7e57611f7d611e30565b5b828203905092915050565b7f4e487b7100000000000000000000000000000000000000000000000000000000600052603260045260246000fd5b6000604082019050611fcd600083018561197e565b8181036020830152611fdf818461199e565b9050939250505056fea2646970667358221220f8640c999690be4ec7b57001dfb4469a8f5b7aa6077910c4fcb39b41390ae5bf64736f6c63430008090033",
  "linkReferences": {},
  "deployedLinkReferences": {}
}