{
  "_format": "hh-sol-artifact-1",
  "contractName": "Unyte",
  "sourceName": "contracts/Lock.sol",
  "abi": [
    {
      "anonymous": false,
      "inputs": [
        {
          "indexed": false,
          "internalType": "uint256",
          "name": "taskId",
          "type": "uint256"
        },
        {
          "indexed": false,
          "internalType": "string",
          "name": "content",
          "type": "string"
        }
      ],
      "name": "TaskAdded",
      "type": "event"
    },
    {
      "anonymous": false,
      "inputs": [
        {
          "indexed": false,
          "internalType": "uint256",
          "name": "taskId",
          "type": "uint256"
        }
      ],
      "name": "TaskCompleted",
      "type": "event"
    },
    {
      "anonymous": false,
      "inputs": [
        {
          "indexed": false,
          "internalType": "uint256",
          "name": "taskId",
          "type": "uint256"
        },
        {
          "indexed": false,
          "internalType": "uint256",
          "name": "from",
          "type": "uint256"
        },
        {
          "indexed": false,
          "internalType": "uint256",
          "name": "to",
          "type": "uint256"
        },
        {
          "indexed": false,
          "internalType": "string",
          "name": "content",
          "type": "string"
        }
      ],
      "name": "ThankAdded",
      "type": "event"
    },
    {
      "inputs": [
        {
          "internalType": "uint256",
          "name": "teamId",
          "type": "uint256"
        },
        {
          "internalType": "uint256",
          "name": "userId",
          "type": "uint256"
        },
        {
          "internalType": "string",
          "name": "content",
          "type": "string"
        }
      ],
      "name": "addTask",
      "outputs": [],
      "stateMutability": "nonpayable",
      "type": "function"
    },
    {
      "inputs": [
        {
          "internalType": "uint256",
          "name": "taskId",
          "type": "uint256"
        },
        {
          "internalType": "uint256",
          "name": "from",
          "type": "uint256"
        },
        {
          "internalType": "uint256",
          "name": "to",
          "type": "uint256"
        },
        {
          "internalType": "string",
          "name": "content",
          "type": "string"
        }
      ],
      "name": "addThank",
      "outputs": [],
      "stateMutability": "nonpayable",
      "type": "function"
    },
    {
      "inputs": [
        {
          "internalType": "uint256",
          "name": "taskId",
          "type": "uint256"
        }
      ],
      "name": "completeTask",
      "outputs": [],
      "stateMutability": "nonpayable",
      "type": "function"
    },
    {
      "inputs": [],
      "name": "getAllTasks",
      "outputs": [
        {
          "components": [
            {
              "internalType": "uint256",
              "name": "taskId",
              "type": "uint256"
            },
            {
              "internalType": "uint256",
              "name": "teamId",
              "type": "uint256"
            },
            {
              "internalType": "uint256",
              "name": "userId",
              "type": "uint256"
            },
            {
              "internalType": "string",
              "name": "content",
              "type": "string"
            },
            {
              "internalType": "bool",
              "name": "completed",
              "type": "bool"
            }
          ],
          "internalType": "struct Unyte.Task[]",
          "name": "",
          "type": "tuple[]"
        }
      ],
      "stateMutability": "view",
      "type": "function"
    },
    {
      "inputs": [],
      "name": "getAllThanks",
      "outputs": [
        {
          "components": [
            {
              "internalType": "uint256",
              "name": "taskId",
              "type": "uint256"
            },
            {
              "internalType": "uint256",
              "name": "from",
              "type": "uint256"
            },
            {
              "internalType": "uint256",
              "name": "to",
              "type": "uint256"
            },
            {
              "internalType": "string",
              "name": "content",
              "type": "string"
            }
          ],
          "internalType": "struct Unyte.Thank[]",
          "name": "",
          "type": "tuple[]"
        }
      ],
      "stateMutability": "view",
      "type": "function"
    },
    {
      "inputs": [],
      "name": "taskCount",
      "outputs": [
        {
          "internalType": "uint256",
          "name": "",
          "type": "uint256"
        }
      ],
      "stateMutability": "view",
      "type": "function"
    },
    {
      "inputs": [
        {
          "internalType": "uint256",
          "name": "",
          "type": "uint256"
        }
      ],
      "name": "tasks",
      "outputs": [
        {
          "internalType": "uint256",
          "name": "taskId",
          "type": "uint256"
        },
        {
          "internalType": "uint256",
          "name": "teamId",
          "type": "uint256"
        },
        {
          "internalType": "uint256",
          "name": "userId",
          "type": "uint256"
        },
        {
          "internalType": "string",
          "name": "content",
          "type": "string"
        },
        {
          "internalType": "bool",
          "name": "completed",
          "type": "bool"
        }
      ],
      "stateMutability": "view",
      "type": "function"
    },
    {
      "inputs": [
        {
          "internalType": "uint256",
          "name": "",
          "type": "uint256"
        }
      ],
      "name": "thanks",
      "outputs": [
        {
          "internalType": "uint256",
          "name": "taskId",
          "type": "uint256"
        },
        {
          "internalType": "uint256",
          "name": "from",
          "type": "uint256"
        },
        {
          "internalType": "uint256",
          "name": "to",
          "type": "uint256"
        },
        {
          "internalType": "string",
          "name": "content",
          "type": "string"
        }
      ],
      "stateMutability": "view",
      "type": "function"
    },
    {
      "inputs": [],
      "name": "thanksCount",
      "outputs": [
        {
          "internalType": "uint256",
          "name": "",
          "type": "uint256"
        }
      ],
      "stateMutability": "view",
      "type": "function"
    }
  ],
  "bytecode": "0x608060405234801561001057600080fd5b5061126e806100206000396000f3fe608060405234801561001057600080fd5b50600436106100935760003560e01c80639aa7d3b3116100665780639aa7d3b314610122578063b4da1e7f14610155578063b6cb58a514610173578063e1e2955814610191578063edffa961146101ad57610093565b80632f8c4ce114610098578063477c3afc146100b4578063779900b4146100d05780638d977672146100ee575b600080fd5b6100b260048036038101906100ad9190610b31565b6101cb565b005b6100ce60048036038101906100c99190610ba0565b6102c1565b005b6100d8610390565b6040516100e59190610e0d565b60405180910390f35b61010860048036038101906101039190610e2f565b610529565b604051610119959493929190610ec4565b60405180910390f35b61013c60048036038101906101379190610e2f565b6105f4565b60405161014c9493929190610f1e565b60405180910390f35b61015d6106ac565b60405161016a919061108f565b60405180910390f35b61017b61082b565b60405161018891906110b1565b60405180910390f35b6101ab60048036038101906101a69190610e2f565b610831565b005b6101b561089f565b6040516101c291906110b1565b60405180910390f35b600160008154809291906101de906110fb565b91905055506040518060a001604052806001548152602001848152602001838152602001828152602001600015158152506000806001548152602001908152602001600020600082015181600001556020820151816001015560408201518160020155606082015181600301908051906020019061025d9291906108a5565b5060808201518160040160006101000a81548160ff0219169083151502179055509050507f2ee7ce8bac091b03a0c391c07ee88a246bdd72bdc6b1ef1ce4d99220595d32c5600154826040516102b4929190611144565b60405180910390a1505050565b600360008154809291906102d4906110fb565b919050555060405180608001604052808581526020018481526020018381526020018281525060026000600354815260200190815260200160002060008201518160000155602082015181600101556040820151816002015560608201518160030190805190602001906103499291906108a5565b509050507fad8425643277b0b771bcc7468b8d75aebd48cd14b797be059a0472d3671e4a83848484846040516103829493929190610f1e565b60405180910390a150505050565b6060600060015467ffffffffffffffff8111156103b0576103af610a06565b5b6040519080825280602002602001820160405280156103e957816020015b6103d661092b565b8152602001906001900390816103ce5790505b5090506000600190505b6001548111610521576000808281526020019081526020016000206040518060a0016040529081600082015481526020016001820154815260200160028201548152602001600382018054610447906111a3565b80601f0160208091040260200160405190810160405280929190818152602001828054610473906111a3565b80156104c05780601f10610495576101008083540402835291602001916104c0565b820191906000526020600020905b8154815290600101906020018083116104a357829003601f168201915b505050505081526020016004820160009054906101000a900460ff161515151581525050826001836104f291906111d5565b8151811061050357610502611209565b5b60200260200101819052508080610519906110fb565b9150506103f3565b508091505090565b600060205280600052604060002060009150905080600001549080600101549080600201549080600301805461055e906111a3565b80601f016020809104026020016040519081016040528092919081815260200182805461058a906111a3565b80156105d75780601f106105ac576101008083540402835291602001916105d7565b820191906000526020600020905b8154815290600101906020018083116105ba57829003601f168201915b5050505050908060040160009054906101000a900460ff16905085565b6002602052806000526040600020600091509050806000015490806001015490806002015490806003018054610629906111a3565b80601f0160208091040260200160405190810160405280929190818152602001828054610655906111a3565b80156106a25780601f10610677576101008083540402835291602001916106a2565b820191906000526020600020905b81548152906001019060200180831161068557829003601f168201915b5050505050905084565b6060600060035467ffffffffffffffff8111156106cc576106cb610a06565b5b60405190808252806020026020018201604052801561070557816020015b6106f261095c565b8152602001906001900390816106ea5790505b5090506000600190505b60035481116108235760026000828152602001908152602001600020604051806080016040529081600082015481526020016001820154815260200160028201548152602001600382018054610764906111a3565b80601f0160208091040260200160405190810160405280929190818152602001828054610790906111a3565b80156107dd5780601f106107b2576101008083540402835291602001916107dd565b820191906000526020600020905b8154815290600101906020018083116107c057829003601f168201915b505050505081525050826001836107f491906111d5565b8151811061080557610804611209565b5b6020026020010181905250808061081b906110fb565b91505061070f565b508091505090565b60015481565b6000806000838152602001908152602001600020905060018160040160006101000a81548160ff0219169083151502179055507fc1fa7142cfb933d0855114a3bffde296944c30b727f297c14d0db4d553d3a5c78260405161089391906110b1565b60405180910390a15050565b60035481565b8280546108b1906111a3565b90600052602060002090601f0160209004810192826108d3576000855561091a565b82601f106108ec57805160ff191683800117855561091a565b8280016001018555821561091a579182015b828111156109195782518255916020019190600101906108fe565b5b5090506109279190610984565b5090565b6040518060a00160405280600081526020016000815260200160008152602001606081526020016000151581525090565b6040518060800160405280600081526020016000815260200160008152602001606081525090565b5b8082111561099d576000816000905550600101610985565b5090565b6000604051905090565b600080fd5b600080fd5b6000819050919050565b6109c8816109b5565b81146109d357600080fd5b50565b6000813590506109e5816109bf565b92915050565b600080fd5b600080fd5b6000601f19601f8301169050919050565b7f4e487b7100000000000000000000000000000000000000000000000000000000600052604160045260246000fd5b610a3e826109f5565b810181811067ffffffffffffffff82111715610a5d57610a5c610a06565b5b80604052505050565b6000610a706109a1565b9050610a7c8282610a35565b919050565b600067ffffffffffffffff821115610a9c57610a9b610a06565b5b610aa5826109f5565b9050602081019050919050565b82818337600083830152505050565b6000610ad4610acf84610a81565b610a66565b905082815260208101848484011115610af057610aef6109f0565b5b610afb848285610ab2565b509392505050565b600082601f830112610b1857610b176109eb565b5b8135610b28848260208601610ac1565b91505092915050565b600080600060608486031215610b4a57610b496109ab565b5b6000610b58868287016109d6565b9350506020610b69868287016109d6565b925050604084013567ffffffffffffffff811115610b8a57610b896109b0565b5b610b9686828701610b03565b9150509250925092565b60008060008060808587031215610bba57610bb96109ab565b5b6000610bc8878288016109d6565b9450506020610bd9878288016109d6565b9350506040610bea878288016109d6565b925050606085013567ffffffffffffffff811115610c0b57610c0a6109b0565b5b610c1787828801610b03565b91505092959194509250565b600081519050919050565b600082825260208201905092915050565b6000819050602082019050919050565b610c58816109b5565b82525050565b600081519050919050565b600082825260208201905092915050565b60005b83811015610c98578082015181840152602081019050610c7d565b83811115610ca7576000848401525b50505050565b6000610cb882610c5e565b610cc28185610c69565b9350610cd2818560208601610c7a565b610cdb816109f5565b840191505092915050565b60008115159050919050565b610cfb81610ce6565b82525050565b600060a083016000830151610d196000860182610c4f565b506020830151610d2c6020860182610c4f565b506040830151610d3f6040860182610c4f565b5060608301518482036060860152610d578282610cad565b9150506080830151610d6c6080860182610cf2565b508091505092915050565b6000610d838383610d01565b905092915050565b6000602082019050919050565b6000610da382610c23565b610dad8185610c2e565b935083602082028501610dbf85610c3f565b8060005b85811015610dfb5784840389528151610ddc8582610d77565b9450610de783610d8b565b925060208a01995050600181019050610dc3565b50829750879550505050505092915050565b60006020820190508181036000830152610e278184610d98565b905092915050565b600060208284031215610e4557610e446109ab565b5b6000610e53848285016109d6565b91505092915050565b610e65816109b5565b82525050565b600082825260208201905092915050565b6000610e8782610c5e565b610e918185610e6b565b9350610ea1818560208601610c7a565b610eaa816109f5565b840191505092915050565b610ebe81610ce6565b82525050565b600060a082019050610ed96000830188610e5c565b610ee66020830187610e5c565b610ef36040830186610e5c565b8181036060830152610f058185610e7c565b9050610f146080830184610eb5565b9695505050505050565b6000608082019050610f336000830187610e5c565b610f406020830186610e5c565b610f4d6040830185610e5c565b8181036060830152610f5f8184610e7c565b905095945050505050565b600081519050919050565b600082825260208201905092915050565b6000819050602082019050919050565b6000608083016000830151610fae6000860182610c4f565b506020830151610fc16020860182610c4f565b506040830151610fd46040860182610c4f565b5060608301518482036060860152610fec8282610cad565b9150508091505092915050565b60006110058383610f96565b905092915050565b6000602082019050919050565b600061102582610f6a565b61102f8185610f75565b93508360208202850161104185610f86565b8060005b8581101561107d578484038952815161105e8582610ff9565b94506110698361100d565b925060208a01995050600181019050611045565b50829750879550505050505092915050565b600060208201905081810360008301526110a9818461101a565b905092915050565b60006020820190506110c66000830184610e5c565b92915050565b7f4e487b7100000000000000000000000000000000000000000000000000000000600052601160045260246000fd5b6000611106826109b5565b91507fffffffffffffffffffffffffffffffffffffffffffffffffffffffffffffffff821415611139576111386110cc565b5b600182019050919050565b60006040820190506111596000830185610e5c565b818103602083015261116b8184610e7c565b90509392505050565b7f4e487b7100000000000000000000000000000000000000000000000000000000600052602260045260246000fd5b600060028204905060018216806111bb57607f821691505b602082108114156111cf576111ce611174565b5b50919050565b60006111e0826109b5565b91506111eb836109b5565b9250828210156111fe576111fd6110cc565b5b828203905092915050565b7f4e487b7100000000000000000000000000000000000000000000000000000000600052603260045260246000fdfea2646970667358221220f73a73b89d8157e55fb008bcffc7cf32cb29bccb27a93a34daf37066ba4e4e7164736f6c63430008090033",
  "linkReferences": {},
  "deployedLinkReferences": {}
}